{
  "_format": "hh-sol-artifact-1",
  "contractName": "HotelBooking",
  "sourceName": "contracts/HotelBooking.sol",
  "abi": [
    {
      "inputs": [
        {
          "internalType": "uint256",
          "name": "roomId",
          "type": "uint256"
        },
        {
          "internalType": "uint256",
          "name": "price",
          "type": "uint256"
        }
      ],
      "name": "addRoom",
      "outputs": [],
      "stateMutability": "nonpayable",
      "type": "function"
    },
    {
      "inputs": [
        {
          "internalType": "uint256",
          "name": "roomId",
          "type": "uint256"
        }
      ],
      "name": "bookRoom",
      "outputs": [],
      "stateMutability": "nonpayable",
      "type": "function"
    },
    {
      "inputs": [
        {
          "internalType": "uint256",
          "name": "roomId",
          "type": "uint256"
        }
      ],
      "name": "isRoomAvailable",
      "outputs": [
        {
          "internalType": "bool",
          "name": "",
          "type": "bool"
        }
      ],
      "stateMutability": "view",
      "type": "function"
    },
    {
      "inputs": [
        {
          "internalType": "uint256",
          "name": "",
          "type": "uint256"
        }
      ],
      "name": "rooms",
      "outputs": [
        {
          "internalType": "bool",
          "name": "available",
          "type": "bool"
        },
        {
          "internalType": "uint256",
          "name": "price",
          "type": "uint256"
        }
      ],
      "stateMutability": "view",
      "type": "function"
    },
    {
      "inputs": [
        {
          "internalType": "uint256",
          "name": "roomId",
          "type": "uint256"
        },
        {
          "internalType": "bool",
          "name": "available",
          "type": "bool"
        }
      ],
      "name": "updateRoomAvailability",
      "outputs": [],
      "stateMutability": "nonpayable",
      "type": "function"
    }
  ],
  "bytecode": "0x608060405234801561001057600080fd5b50610690806100206000396000f3fe608060405234801561001057600080fd5b50600436106100575760003560e01c80631bae0ac81461005c578063220a86ad1461008d57806336e1d3a9146100bd5780635dd8ca0f146100d95780635f49d3d8146100f5575b600080fd5b610076600480360381019061007191906103be565b610111565b604051610084929190610501565b60405180910390f35b6100a760048036038101906100a291906103be565b610142565b6040516100b491906104e6565b60405180910390f35b6100d760048036038101906100d29190610423565b6101c5565b005b6100f360048036038101906100ee91906103e7565b610278565b005b61010f600480360381019061010a91906103be565b610301565b005b60006020528060005260406000206000915090508060000160009054906101000a900460ff16908060010154905082565b600080600080848152602001908152602001600020600101541161019b576040517f08c379a00000000000000000000000000000000000000000000000000000000081526004016101929061052a565b60405180910390fd5b60008083815260200190815260200160002060000160009054906101000a900460ff169050919050565b6000806000848152602001908152602001600020600101541461021d576040517f08c379a00000000000000000000000000000000000000000000000000000000081526004016102149061056a565b60405180910390fd5b60405180604001604052806001151581526020018281525060008084815260200190815260200160002060008201518160000160006101000a81548160ff021916908315150217905550602082015181600101559050505050565b600080600084815260200190815260200160002060010154116102d0576040517f08c379a00000000000000000000000000000000000000000000000000000000081526004016102c79061052a565b60405180910390fd5b8060008084815260200190815260200160002060000160006101000a81548160ff0219169083151502179055505050565b60008082815260200190815260200160002060000160009054906101000a900460ff16610363576040517f08c379a000000000000000000000000000000000000000000000000000000000815260040161035a9061054a565b60405180910390fd5b600080600083815260200190815260200160002060000160006101000a81548160ff02191690831515021790555050565b6000813590506103a38161062c565b92915050565b6000813590506103b881610643565b92915050565b6000602082840312156103d057600080fd5b60006103de848285016103a9565b91505092915050565b600080604083850312156103fa57600080fd5b6000610408858286016103a9565b925050602061041985828601610394565b9150509250929050565b6000806040838503121561043657600080fd5b6000610444858286016103a9565b9250506020610455858286016103a9565b9150509250929050565b6104688161059b565b82525050565b600061047b60138361058a565b9150610486826105b1565b602082019050919050565b600061049e60128361058a565b91506104a9826105da565b602082019050919050565b60006104c160138361058a565b91506104cc82610603565b602082019050919050565b6104e0816105a7565b82525050565b60006020820190506104fb600083018461045f565b92915050565b6000604082019050610516600083018561045f565b61052360208301846104d7565b9392505050565b600060208201905081810360008301526105438161046e565b9050919050565b6000602082019050818103600083015261056381610491565b9050919050565b60006020820190508181036000830152610583816104b4565b9050919050565b600082825260208201905092915050565b60008115159050919050565b6000819050919050565b7f526f6f6d20646f6573206e6f7420657869737400000000000000000000000000600082015250565b7f526f6f6d206e6f7420617661696c61626c650000000000000000000000000000600082015250565b7f526f6f6d20616c72656164792065786973747300000000000000000000000000600082015250565b6106358161059b565b811461064057600080fd5b50565b61064c816105a7565b811461065757600080fd5b5056fea26469706673582212201970518503cbf51f1ac488f9f7eb52fcaf1168bc01677e5375a89572cd6b7ac864736f6c63430008040033",
  "linkReferences": {},
  "deployedLinkReferences": {}
}